{
  "_format": "hh-sol-artifact-1",
  "contractName": "Login",
  "sourceName": "contracts/Login.sol",
  "abi": [
    {
      "inputs": [],
      "stateMutability": "nonpayable",
      "type": "constructor"
    },
    {
      "anonymous": false,
      "inputs": [
        {
          "indexed": true,
          "internalType": "address",
          "name": "owner",
          "type": "address"
        },
        {
          "indexed": true,
          "internalType": "address",
          "name": "approved",
          "type": "address"
        },
        {
          "indexed": true,
          "internalType": "uint256",
          "name": "tokenId",
          "type": "uint256"
        }
      ],
      "name": "Approval",
      "type": "event"
    },
    {
      "anonymous": false,
      "inputs": [
        {
          "indexed": true,
          "internalType": "address",
          "name": "owner",
          "type": "address"
        },
        {
          "indexed": true,
          "internalType": "address",
          "name": "operator",
          "type": "address"
        },
        {
          "indexed": false,
          "internalType": "bool",
          "name": "approved",
          "type": "bool"
        }
      ],
      "name": "ApprovalForAll",
      "type": "event"
    },
    {
      "anonymous": false,
      "inputs": [
        {
          "indexed": false,
          "internalType": "address",
          "name": "sender",
          "type": "address"
        },
        {
          "indexed": false,
          "internalType": "uint256",
          "name": "tokenId",
          "type": "uint256"
        }
      ],
      "name": "NFTMinted",
      "type": "event"
    },
    {
      "anonymous": false,
      "inputs": [
        {
          "indexed": true,
          "internalType": "address",
          "name": "from",
          "type": "address"
        },
        {
          "indexed": true,
          "internalType": "address",
          "name": "to",
          "type": "address"
        },
        {
          "indexed": true,
          "internalType": "uint256",
          "name": "tokenId",
          "type": "uint256"
        }
      ],
      "name": "Transfer",
      "type": "event"
    },
    {
      "inputs": [
        {
          "internalType": "address",
          "name": "to",
          "type": "address"
        },
        {
          "internalType": "uint256",
          "name": "tokenId",
          "type": "uint256"
        }
      ],
      "name": "approve",
      "outputs": [],
      "stateMutability": "nonpayable",
      "type": "function"
    },
    {
      "inputs": [
        {
          "internalType": "address",
          "name": "owner",
          "type": "address"
        }
      ],
      "name": "balanceOf",
      "outputs": [
        {
          "internalType": "uint256",
          "name": "",
          "type": "uint256"
        }
      ],
      "stateMutability": "view",
      "type": "function"
    },
    {
      "inputs": [
        {
          "internalType": "uint256",
          "name": "tokenId",
          "type": "uint256"
        }
      ],
      "name": "getApproved",
      "outputs": [
        {
          "internalType": "address",
          "name": "",
          "type": "address"
        }
      ],
      "stateMutability": "view",
      "type": "function"
    },
    {
      "inputs": [
        {
          "internalType": "address",
          "name": "owner",
          "type": "address"
        },
        {
          "internalType": "address",
          "name": "operator",
          "type": "address"
        }
      ],
      "name": "isApprovedForAll",
      "outputs": [
        {
          "internalType": "bool",
          "name": "",
          "type": "bool"
        }
      ],
      "stateMutability": "view",
      "type": "function"
    },
    {
      "inputs": [],
      "name": "mintLogin",
      "outputs": [],
      "stateMutability": "nonpayable",
      "type": "function"
    },
    {
      "inputs": [],
      "name": "name",
      "outputs": [
        {
          "internalType": "string",
          "name": "",
          "type": "string"
        }
      ],
      "stateMutability": "view",
      "type": "function"
    },
    {
      "inputs": [
        {
          "internalType": "uint256",
          "name": "tokenId",
          "type": "uint256"
        }
      ],
      "name": "ownerOf",
      "outputs": [
        {
          "internalType": "address",
          "name": "",
          "type": "address"
        }
      ],
      "stateMutability": "view",
      "type": "function"
    },
    {
      "inputs": [
        {
          "internalType": "address",
          "name": "from",
          "type": "address"
        },
        {
          "internalType": "address",
          "name": "to",
          "type": "address"
        },
        {
          "internalType": "uint256",
          "name": "tokenId",
          "type": "uint256"
        }
      ],
      "name": "safeTransferFrom",
      "outputs": [],
      "stateMutability": "nonpayable",
      "type": "function"
    },
    {
      "inputs": [
        {
          "internalType": "address",
          "name": "from",
          "type": "address"
        },
        {
          "internalType": "address",
          "name": "to",
          "type": "address"
        },
        {
          "internalType": "uint256",
          "name": "tokenId",
          "type": "uint256"
        },
        {
          "internalType": "bytes",
          "name": "data",
          "type": "bytes"
        }
      ],
      "name": "safeTransferFrom",
      "outputs": [],
      "stateMutability": "nonpayable",
      "type": "function"
    },
    {
      "inputs": [
        {
          "internalType": "address",
          "name": "operator",
          "type": "address"
        },
        {
          "internalType": "bool",
          "name": "approved",
          "type": "bool"
        }
      ],
      "name": "setApprovalForAll",
      "outputs": [],
      "stateMutability": "nonpayable",
      "type": "function"
    },
    {
      "inputs": [
        {
          "internalType": "address",
          "name": "whitelist",
          "type": "address"
        }
      ],
      "name": "setWhitelistAddress",
      "outputs": [],
      "stateMutability": "nonpayable",
      "type": "function"
    },
    {
      "inputs": [
        {
          "internalType": "bytes4",
          "name": "interfaceId",
          "type": "bytes4"
        }
      ],
      "name": "supportsInterface",
      "outputs": [
        {
          "internalType": "bool",
          "name": "",
          "type": "bool"
        }
      ],
      "stateMutability": "view",
      "type": "function"
    },
    {
      "inputs": [],
      "name": "symbol",
      "outputs": [
        {
          "internalType": "string",
          "name": "",
          "type": "string"
        }
      ],
      "stateMutability": "view",
      "type": "function"
    },
    {
      "inputs": [
        {
          "internalType": "uint256",
          "name": "tokenId",
          "type": "uint256"
        }
      ],
      "name": "tokenURI",
      "outputs": [
        {
          "internalType": "string",
          "name": "",
          "type": "string"
        }
      ],
      "stateMutability": "view",
      "type": "function"
    },
    {
      "inputs": [
        {
          "internalType": "address",
          "name": "from",
          "type": "address"
        },
        {
          "internalType": "address",
          "name": "to",
          "type": "address"
        },
        {
          "internalType": "uint256",
          "name": "tokenId",
          "type": "uint256"
        }
      ],
      "name": "transferFrom",
      "outputs": [],
      "stateMutability": "nonpayable",
      "type": "function"
    }
  ],
  "bytecode": "0x6080604052604051806101c0016040528061019d8152602001620039af61019d9139600a908162000031919062000399565b506103e8600b553480156200004557600080fd5b506040518060400160405280600b81526020017f4c6f67696e20546f6b656e0000000000000000000000000000000000000000008152506040518060400160405280600581526020017f4c47544b4e0000000000000000000000000000000000000000000000000000008152508160009081620000c3919062000399565b508060019081620000d5919062000399565b50505033600860006101000a81548173ffffffffffffffffffffffffffffffffffffffff021916908373ffffffffffffffffffffffffffffffffffffffff16021790555062000480565b600081519050919050565b7f4e487b7100000000000000000000000000000000000000000000000000000000600052604160045260246000fd5b7f4e487b7100000000000000000000000000000000000000000000000000000000600052602260045260246000fd5b60006002820490506001821680620001a157607f821691505b602082108103620001b757620001b662000159565b5b50919050565b60008190508160005260206000209050919050565b60006020601f8301049050919050565b600082821b905092915050565b600060088302620002217fffffffffffffffffffffffffffffffffffffffffffffffffffffffffffffffff82620001e2565b6200022d8683620001e2565b95508019841693508086168417925050509392505050565b6000819050919050565b6000819050919050565b60006200027a620002746200026e8462000245565b6200024f565b62000245565b9050919050565b6000819050919050565b620002968362000259565b620002ae620002a58262000281565b848454620001ef565b825550505050565b600090565b620002c5620002b6565b620002d28184846200028b565b505050565b5b81811015620002fa57620002ee600082620002bb565b600181019050620002d8565b5050565b601f82111562000349576200031381620001bd565b6200031e84620001d2565b810160208510156200032e578190505b620003466200033d85620001d2565b830182620002d7565b50505b505050565b600082821c905092915050565b60006200036e600019846008026200034e565b1980831691505092915050565b60006200038983836200035b565b9150826002028217905092915050565b620003a4826200011f565b67ffffffffffffffff811115620003c057620003bf6200012a565b5b620003cc825462000188565b620003d9828285620002fe565b600060209050601f831160018114620004115760008415620003fc578287015190505b6200040885826200037b565b86555062000478565b601f1984166200042186620001bd565b60005b828110156200044b5784890151825560018201915060208501945060208101905062000424565b868310156200046b578489015162000467601f8916826200035b565b8355505b6001600288020188555050505b505050505050565b61351f80620004906000396000f3fe608060405234801561001057600080fd5b50600436106100f55760003560e01c80636eb9143811610097578063a22cb46511610066578063a22cb46514610270578063b88d4fde1461028c578063c87b56dd146102a8578063e985e9c5146102d8576100f5565b80636eb91438146101fc57806370a082311461020657806395d89b4114610236578063a224c74514610254576100f5565b8063095ea7b3116100d3578063095ea7b31461017857806323b872dd1461019457806342842e0e146101b05780636352211e146101cc576100f5565b806301ffc9a7146100fa57806306fdde031461012a578063081812fc14610148575b600080fd5b610114600480360381019061010f9190611e3f565b610308565b6040516101219190611e87565b60405180910390f35b6101326103ea565b60405161013f9190611f32565b60405180910390f35b610162600480360381019061015d9190611f8a565b61047c565b60405161016f9190611ff8565b60405180910390f35b610192600480360381019061018d919061203f565b6104c2565b005b6101ae60048036038101906101a9919061207f565b6105d9565b005b6101ca60048036038101906101c5919061207f565b610639565b005b6101e660048036038101906101e19190611f8a565b610659565b6040516101f39190611ff8565b60405180910390f35b6102046106df565b005b610220600480360381019061021b91906120d2565b61096e565b60405161022d919061210e565b60405180910390f35b61023e610a25565b60405161024b9190611f32565b60405180910390f35b61026e600480360381019061026991906120d2565b610ab7565b005b61028a60048036038101906102859190612155565b610b8b565b005b6102a660048036038101906102a191906122ca565b610ba1565b005b6102c260048036038101906102bd9190611f8a565b610c03565b6040516102cf9190611f32565b60405180910390f35b6102f260048036038101906102ed919061234d565b610d15565b6040516102ff9190611e87565b60405180910390f35b60007f80ac58cd000000000000000000000000000000000000000000000000000000007bffffffffffffffffffffffffffffffffffffffffffffffffffffffff1916827bffffffffffffffffffffffffffffffffffffffffffffffffffffffff191614806103d357507f5b5e139f000000000000000000000000000000000000000000000000000000007bffffffffffffffffffffffffffffffffffffffffffffffffffffffff1916827bffffffffffffffffffffffffffffffffffffffffffffffffffffffff1916145b806103e357506103e282610da9565b5b9050919050565b6060600080546103f9906123bc565b80601f0160208091040260200160405190810160405280929190818152602001828054610425906123bc565b80156104725780601f1061044757610100808354040283529160200191610472565b820191906000526020600020905b81548152906001019060200180831161045557829003601f168201915b5050505050905090565b600061048782610e13565b6004600083815260200190815260200160002060009054906101000a900473ffffffffffffffffffffffffffffffffffffffff169050919050565b60006104cd82610659565b90508073ffffffffffffffffffffffffffffffffffffffff168373ffffffffffffffffffffffffffffffffffffffff160361053d576040517f08c379a00000000000000000000000000000000000000000000000000000000081526004016105349061245f565b60405180910390fd5b8073ffffffffffffffffffffffffffffffffffffffff1661055c610e5e565b73ffffffffffffffffffffffffffffffffffffffff16148061058b575061058a81610585610e5e565b610d15565b5b6105ca576040517f08c379a00000000000000000000000000000000000000000000000000000000081526004016105c1906124f1565b60405180910390fd5b6105d48383610e66565b505050565b6105ea6105e4610e5e565b82610f1f565b610629576040517f08c379a000000000000000000000000000000000000000000000000000000000815260040161062090612583565b60405180910390fd5b610634838383610fb4565b505050565b61065483838360405180602001604052806000815250610ba1565b505050565b600080610665836112ad565b9050600073ffffffffffffffffffffffffffffffffffffffff168173ffffffffffffffffffffffffffffffffffffffff16036106d6576040517f08c379a00000000000000000000000000000000000000000000000000000000081526004016106cd906125ef565b60405180910390fd5b80915050919050565b60006106eb60076112ea565b9050600b548110610731576040517f08c379a00000000000000000000000000000000000000000000000000000000081526004016107289061265b565b60405180910390fd5b600061073c3361096e565b1461077c576040517f08c379a0000000000000000000000000000000000000000000000000000000008152600401610773906126c7565b60405180910390fd5b600960009054906101000a900473ffffffffffffffffffffffffffffffffffffffff1673ffffffffffffffffffffffffffffffffffffffff166309fd8212336040518263ffffffff1660e01b81526004016107d79190611ff8565b602060405180830381865afa1580156107f4573d6000803e3d6000fd5b505050506040513d601f19601f8201168201806040525081019061081891906126fc565b610857576040517f08c379a000000000000000000000000000000000000000000000000000000000815260040161084e90612775565b60405180910390fd5b600061086e60018361086991906127c4565b6112f8565b60405160200161087e9190612880565b60405160208183030381529060405290506000600a826040516020016108a5929190612986565b604051602081830303815290604052905060006108ea836108c5846113c6565b6040516020016108d6929190612b0b565b6040516020818303038152906040526113c6565b90506000816040516020016108ff9190612b9c565b604051602081830303815290604052905061091a3386611529565b6109248582611547565b61092e60076115b4565b7f4cc0a9c4a99ddc700de1af2c9f916a7cbfdb71f14801ccff94061ad1ef8a8040338660405161095f929190612bbe565b60405180910390a15050505050565b60008073ffffffffffffffffffffffffffffffffffffffff168273ffffffffffffffffffffffffffffffffffffffff16036109de576040517f08c379a00000000000000000000000000000000000000000000000000000000081526004016109d590612c59565b60405180910390fd5b600360008373ffffffffffffffffffffffffffffffffffffffff1673ffffffffffffffffffffffffffffffffffffffff168152602001908152602001600020549050919050565b606060018054610a34906123bc565b80601f0160208091040260200160405190810160405280929190818152602001828054610a60906123bc565b8015610aad5780601f10610a8257610100808354040283529160200191610aad565b820191906000526020600020905b815481529060010190602001808311610a9057829003601f168201915b5050505050905090565b600860009054906101000a900473ffffffffffffffffffffffffffffffffffffffff1673ffffffffffffffffffffffffffffffffffffffff163373ffffffffffffffffffffffffffffffffffffffff1614610b47576040517f08c379a0000000000000000000000000000000000000000000000000000000008152600401610b3e90612ceb565b60405180910390fd5b80600960006101000a81548173ffffffffffffffffffffffffffffffffffffffff021916908373ffffffffffffffffffffffffffffffffffffffff16021790555050565b610b9d610b96610e5e565b83836115ca565b5050565b610bb2610bac610e5e565b83610f1f565b610bf1576040517f08c379a0000000000000000000000000000000000000000000000000000000008152600401610be890612583565b60405180910390fd5b610bfd84848484611736565b50505050565b6060610c0e82610e13565b6000600660008481526020019081526020016000208054610c2e906123bc565b80601f0160208091040260200160405190810160405280929190818152602001828054610c5a906123bc565b8015610ca75780601f10610c7c57610100808354040283529160200191610ca7565b820191906000526020600020905b815481529060010190602001808311610c8a57829003601f168201915b505050505090506000610cb8611792565b90506000815103610ccd578192505050610d10565b600082511115610d02578082604051602001610cea929190612d0b565b60405160208183030381529060405292505050610d10565b610d0b846117a9565b925050505b919050565b6000600560008473ffffffffffffffffffffffffffffffffffffffff1673ffffffffffffffffffffffffffffffffffffffff16815260200190815260200160002060008373ffffffffffffffffffffffffffffffffffffffff1673ffffffffffffffffffffffffffffffffffffffff16815260200190815260200160002060009054906101000a900460ff16905092915050565b60007f01ffc9a7000000000000000000000000000000000000000000000000000000007bffffffffffffffffffffffffffffffffffffffffffffffffffffffff1916827bffffffffffffffffffffffffffffffffffffffffffffffffffffffff1916149050919050565b610e1c81611811565b610e5b576040517f08c379a0000000000000000000000000000000000000000000000000000000008152600401610e52906125ef565b60405180910390fd5b50565b600033905090565b816004600083815260200190815260200160002060006101000a81548173ffffffffffffffffffffffffffffffffffffffff021916908373ffffffffffffffffffffffffffffffffffffffff160217905550808273ffffffffffffffffffffffffffffffffffffffff16610ed983610659565b73ffffffffffffffffffffffffffffffffffffffff167f8c5be1e5ebec7d5bd14f71427d1e84f3dd0314c0f7b2291e5b200ac8c7c3b92560405160405180910390a45050565b600080610f2b83610659565b90508073ffffffffffffffffffffffffffffffffffffffff168473ffffffffffffffffffffffffffffffffffffffff161480610f6d5750610f6c8185610d15565b5b80610fab57508373ffffffffffffffffffffffffffffffffffffffff16610f938461047c565b73ffffffffffffffffffffffffffffffffffffffff16145b91505092915050565b8273ffffffffffffffffffffffffffffffffffffffff16610fd482610659565b73ffffffffffffffffffffffffffffffffffffffff161461102a576040517f08c379a000000000000000000000000000000000000000000000000000000000815260040161102190612da1565b60405180910390fd5b600073ffffffffffffffffffffffffffffffffffffffff168273ffffffffffffffffffffffffffffffffffffffff1603611099576040517f08c379a000000000000000000000000000000000000000000000000000000000815260040161109090612e33565b60405180910390fd5b6110a68383836001611852565b8273ffffffffffffffffffffffffffffffffffffffff166110c682610659565b73ffffffffffffffffffffffffffffffffffffffff161461111c576040517f08c379a000000000000000000000000000000000000000000000000000000000815260040161111390612da1565b60405180910390fd5b6004600082815260200190815260200160002060006101000a81549073ffffffffffffffffffffffffffffffffffffffff02191690556001600360008573ffffffffffffffffffffffffffffffffffffffff1673ffffffffffffffffffffffffffffffffffffffff168152602001908152602001600020600082825403925050819055506001600360008473ffffffffffffffffffffffffffffffffffffffff1673ffffffffffffffffffffffffffffffffffffffff16815260200190815260200160002060008282540192505081905550816002600083815260200190815260200160002060006101000a81548173ffffffffffffffffffffffffffffffffffffffff021916908373ffffffffffffffffffffffffffffffffffffffff160217905550808273ffffffffffffffffffffffffffffffffffffffff168473ffffffffffffffffffffffffffffffffffffffff167fddf252ad1be2c89b69c2b068fc378daa952ba7f163c4a11628f55a4df523b3ef60405160405180910390a46112a88383836001611858565b505050565b60006002600083815260200190815260200160002060009054906101000a900473ffffffffffffffffffffffffffffffffffffffff169050919050565b600081600001549050919050565b6060600060016113078461185e565b01905060008167ffffffffffffffff8111156113265761132561219f565b5b6040519080825280601f01601f1916602001820160405280156113585781602001600182028036833780820191505090505b509050600082602001820190505b6001156113bb578080600190039150507f3031323334353637383961626364656600000000000000000000000000000000600a86061a8153600a85816113af576113ae612e53565b5b04945060008503611366575b819350505050919050565b606060008251036113e857604051806020016040528060008152509050611524565b60006040518060600160405280604081526020016134aa604091399050600060036002855161141791906127c4565b6114219190612e82565b600461142d9190612eb3565b67ffffffffffffffff8111156114465761144561219f565b5b6040519080825280601f01601f1916602001820160405280156114785781602001600182028036833780820191505090505b509050600182016020820185865187015b808210156114e4576003820191508151603f8160121c168501518453600184019350603f81600c1c168501518453600184019350603f8160061c168501518453600184019350603f8116850151845360018401935050611489565b505060038651066001811461150057600281146115135761151b565b603d6001830353603d600283035361151b565b603d60018303535b50505080925050505b919050565b6115438282604051806020016040528060008152506119b1565b5050565b61155082611811565b61158f576040517f08c379a000000000000000000000000000000000000000000000000000000000815260040161158690612f67565b60405180910390fd5b806006600084815260200190815260200160002090816115af919061311e565b505050565b6001816000016000828254019250508190555050565b8173ffffffffffffffffffffffffffffffffffffffff168373ffffffffffffffffffffffffffffffffffffffff1603611638576040517f08c379a000000000000000000000000000000000000000000000000000000000815260040161162f9061323c565b60405180910390fd5b80600560008573ffffffffffffffffffffffffffffffffffffffff1673ffffffffffffffffffffffffffffffffffffffff16815260200190815260200160002060008473ffffffffffffffffffffffffffffffffffffffff1673ffffffffffffffffffffffffffffffffffffffff16815260200190815260200160002060006101000a81548160ff0219169083151502179055508173ffffffffffffffffffffffffffffffffffffffff168373ffffffffffffffffffffffffffffffffffffffff167f17307eab39ab6107e8899845ad3d59bd9653f200f220920489ca2b5937696c31836040516117299190611e87565b60405180910390a3505050565b611741848484610fb4565b61174d84848484611a0c565b61178c576040517f08c379a0000000000000000000000000000000000000000000000000000000008152600401611783906132ce565b60405180910390fd5b50505050565b606060405180602001604052806000815250905090565b60606117b482610e13565b60006117be611792565b905060008151116117de5760405180602001604052806000815250611809565b806117e8846112f8565b6040516020016117f9929190612d0b565b6040516020818303038152906040525b915050919050565b60008073ffffffffffffffffffffffffffffffffffffffff16611833836112ad565b73ffffffffffffffffffffffffffffffffffffffff1614159050919050565b50505050565b50505050565b600080600090507a184f03e93ff9f4daa797ed6e38ed64bf6a1f01000000000000000083106118bc577a184f03e93ff9f4daa797ed6e38ed64bf6a1f01000000000000000083816118b2576118b1612e53565b5b0492506040810190505b6d04ee2d6d415b85acef810000000083106118f9576d04ee2d6d415b85acef810000000083816118ef576118ee612e53565b5b0492506020810190505b662386f26fc10000831061192857662386f26fc10000838161191e5761191d612e53565b5b0492506010810190505b6305f5e1008310611951576305f5e100838161194757611946612e53565b5b0492506008810190505b612710831061197657612710838161196c5761196b612e53565b5b0492506004810190505b60648310611999576064838161198f5761198e612e53565b5b0492506002810190505b600a83106119a8576001810190505b80915050919050565b6119bb8383611b93565b6119c86000848484611a0c565b611a07576040517f08c379a00000000000000000000000000000000000000000000000000000000081526004016119fe906132ce565b60405180910390fd5b505050565b6000611a2d8473ffffffffffffffffffffffffffffffffffffffff16611db0565b15611b86578373ffffffffffffffffffffffffffffffffffffffff1663150b7a02611a56610e5e565b8786866040518563ffffffff1660e01b8152600401611a789493929190613343565b6020604051808303816000875af1925050508015611ab457506040513d601f19601f82011682018060405250810190611ab191906133a4565b60015b611b36573d8060008114611ae4576040519150601f19603f3d011682016040523d82523d6000602084013e611ae9565b606091505b506000815103611b2e576040517f08c379a0000000000000000000000000000000000000000000000000000000008152600401611b25906132ce565b60405180910390fd5b805181602001fd5b63150b7a0260e01b7bffffffffffffffffffffffffffffffffffffffffffffffffffffffff1916817bffffffffffffffffffffffffffffffffffffffffffffffffffffffff191614915050611b8b565b600190505b949350505050565b600073ffffffffffffffffffffffffffffffffffffffff168273ffffffffffffffffffffffffffffffffffffffff1603611c02576040517f08c379a0000000000000000000000000000000000000000000000000000000008152600401611bf99061341d565b60405180910390fd5b611c0b81611811565b15611c4b576040517f08c379a0000000000000000000000000000000000000000000000000000000008152600401611c4290613489565b60405180910390fd5b611c59600083836001611852565b611c6281611811565b15611ca2576040517f08c379a0000000000000000000000000000000000000000000000000000000008152600401611c9990613489565b60405180910390fd5b6001600360008473ffffffffffffffffffffffffffffffffffffffff1673ffffffffffffffffffffffffffffffffffffffff16815260200190815260200160002060008282540192505081905550816002600083815260200190815260200160002060006101000a81548173ffffffffffffffffffffffffffffffffffffffff021916908373ffffffffffffffffffffffffffffffffffffffff160217905550808273ffffffffffffffffffffffffffffffffffffffff16600073ffffffffffffffffffffffffffffffffffffffff167fddf252ad1be2c89b69c2b068fc378daa952ba7f163c4a11628f55a4df523b3ef60405160405180910390a4611dac600083836001611858565b5050565b6000808273ffffffffffffffffffffffffffffffffffffffff163b119050919050565b6000604051905090565b600080fd5b600080fd5b60007fffffffff0000000000000000000000000000000000000000000000000000000082169050919050565b611e1c81611de7565b8114611e2757600080fd5b50565b600081359050611e3981611e13565b92915050565b600060208284031215611e5557611e54611ddd565b5b6000611e6384828501611e2a565b91505092915050565b60008115159050919050565b611e8181611e6c565b82525050565b6000602082019050611e9c6000830184611e78565b92915050565b600081519050919050565b600082825260208201905092915050565b60005b83811015611edc578082015181840152602081019050611ec1565b60008484015250505050565b6000601f19601f8301169050919050565b6000611f0482611ea2565b611f0e8185611ead565b9350611f1e818560208601611ebe565b611f2781611ee8565b840191505092915050565b60006020820190508181036000830152611f4c8184611ef9565b905092915050565b6000819050919050565b611f6781611f54565b8114611f7257600080fd5b50565b600081359050611f8481611f5e565b92915050565b600060208284031215611fa057611f9f611ddd565b5b6000611fae84828501611f75565b91505092915050565b600073ffffffffffffffffffffffffffffffffffffffff82169050919050565b6000611fe282611fb7565b9050919050565b611ff281611fd7565b82525050565b600060208201905061200d6000830184611fe9565b92915050565b61201c81611fd7565b811461202757600080fd5b50565b60008135905061203981612013565b92915050565b6000806040838503121561205657612055611ddd565b5b60006120648582860161202a565b925050602061207585828601611f75565b9150509250929050565b60008060006060848603121561209857612097611ddd565b5b60006120a68682870161202a565b93505060206120b78682870161202a565b92505060406120c886828701611f75565b9150509250925092565b6000602082840312156120e8576120e7611ddd565b5b60006120f68482850161202a565b91505092915050565b61210881611f54565b82525050565b600060208201905061212360008301846120ff565b92915050565b61213281611e6c565b811461213d57600080fd5b50565b60008135905061214f81612129565b92915050565b6000806040838503121561216c5761216b611ddd565b5b600061217a8582860161202a565b925050602061218b85828601612140565b9150509250929050565b600080fd5b600080fd5b7f4e487b7100000000000000000000000000000000000000000000000000000000600052604160045260246000fd5b6121d782611ee8565b810181811067ffffffffffffffff821117156121f6576121f561219f565b5b80604052505050565b6000612209611dd3565b905061221582826121ce565b919050565b600067ffffffffffffffff8211156122355761223461219f565b5b61223e82611ee8565b9050602081019050919050565b82818337600083830152505050565b600061226d6122688461221a565b6121ff565b9050828152602081018484840111156122895761228861219a565b5b61229484828561224b565b509392505050565b600082601f8301126122b1576122b0612195565b5b81356122c184826020860161225a565b91505092915050565b600080600080608085870312156122e4576122e3611ddd565b5b60006122f28782880161202a565b94505060206123038782880161202a565b935050604061231487828801611f75565b925050606085013567ffffffffffffffff81111561233557612334611de2565b5b6123418782880161229c565b91505092959194509250565b6000806040838503121561236457612363611ddd565b5b60006123728582860161202a565b92505060206123838582860161202a565b9150509250929050565b7f4e487b7100000000000000000000000000000000000000000000000000000000600052602260045260246000fd5b600060028204905060018216806123d457607f821691505b6020821081036123e7576123e661238d565b5b50919050565b7f4552433732313a20617070726f76616c20746f2063757272656e74206f776e6560008201527f7200000000000000000000000000000000000000000000000000000000000000602082015250565b6000612449602183611ead565b9150612454826123ed565b604082019050919050565b600060208201905081810360008301526124788161243c565b9050919050565b7f4552433732313a20617070726f76652063616c6c6572206973206e6f7420746f60008201527f6b656e206f776e6572206f7220617070726f76656420666f7220616c6c000000602082015250565b60006124db603d83611ead565b91506124e68261247f565b604082019050919050565b6000602082019050818103600083015261250a816124ce565b9050919050565b7f4552433732313a2063616c6c6572206973206e6f7420746f6b656e206f776e6560008201527f72206f7220617070726f76656400000000000000000000000000000000000000602082015250565b600061256d602d83611ead565b915061257882612511565b604082019050919050565b6000602082019050818103600083015261259c81612560565b9050919050565b7f4552433732313a20696e76616c696420746f6b656e2049440000000000000000600082015250565b60006125d9601883611ead565b91506125e4826125a3565b602082019050919050565b60006020820190508181036000830152612608816125cc565b9050919050565b7f4d617820737570706c7920686173206265656e20726561636865640000000000600082015250565b6000612645601b83611ead565b91506126508261260f565b602082019050919050565b6000602082019050818103600083015261267481612638565b9050919050565b7f4d6178204d696e74207065722077616c6c657420726561636865640000000000600082015250565b60006126b1601b83611ead565b91506126bc8261267b565b602082019050919050565b600060208201905081810360008301526126e0816126a4565b9050919050565b6000815190506126f681612129565b92915050565b60006020828403121561271257612711611ddd565b5b6000612720848285016126e7565b91505092915050565b7f596f7520617265206e6f7420696e2077686974656c6973740000000000000000600082015250565b600061275f601883611ead565b915061276a82612729565b602082019050919050565b6000602082019050818103600083015261278e81612752565b9050919050565b7f4e487b7100000000000000000000000000000000000000000000000000000000600052601160045260246000fd5b60006127cf82611f54565b91506127da83611f54565b92508282019050808211156127f2576127f1612795565b5b92915050565b600081905092915050565b7f4d656d626572206e756d62657220230000000000000000000000000000000000600082015250565b6000612839600f836127f8565b915061284482612803565b600f82019050919050565b600061285a82611ea2565b61286481856127f8565b9350612874818560208601611ebe565b80840191505092915050565b600061288b8261282c565b9150612897828461284f565b915081905092915050565b60008190508160005260206000209050919050565b600081546128c4816123bc565b6128ce81866127f8565b945060018216600081146128e957600181146128fe57612931565b60ff1983168652811515820286019350612931565b612907856128a2565b60005b838110156129295781548189015260018201915060208101905061290a565b838801955050505b50505092915050565b7f3c2f746578743e3c2f7376673e00000000000000000000000000000000000000600082015250565b6000612970600d836127f8565b915061297b8261293a565b600d82019050919050565b600061299282856128b7565b915061299e828461284f565b91506129a982612963565b91508190509392505050565b7f7b226e616d65223a202200000000000000000000000000000000000000000000600082015250565b60006129eb600a836127f8565b91506129f6826129b5565b600a82019050919050565b7f222c20226465736372697074696f6e223a202254686973204e4654206761726160008201527f6e7420796f7520746f20616363657373206f6e2074686520726573657276656460208201527f2061726561206f6e206f7572204170706c69636174696f6e222c2022696d616760408201527f65223a2022646174613a696d6167652f7376672b786d6c3b6261736536342c00606082015250565b6000612aa9607f836127f8565b9150612ab482612a01565b607f82019050919050565b7f227d000000000000000000000000000000000000000000000000000000000000600082015250565b6000612af56002836127f8565b9150612b0082612abf565b600282019050919050565b6000612b16826129de565b9150612b22828561284f565b9150612b2d82612a9c565b9150612b39828461284f565b9150612b4482612ae8565b91508190509392505050565b7f646174613a6170706c69636174696f6e2f6a736f6e3b6261736536342c000000600082015250565b6000612b86601d836127f8565b9150612b9182612b50565b601d82019050919050565b6000612ba782612b79565b9150612bb3828461284f565b915081905092915050565b6000604082019050612bd36000830185611fe9565b612be060208301846120ff565b9392505050565b7f4552433732313a2061646472657373207a65726f206973206e6f74206120766160008201527f6c6964206f776e65720000000000000000000000000000000000000000000000602082015250565b6000612c43602983611ead565b9150612c4e82612be7565b604082019050919050565b60006020820190508181036000830152612c7281612c36565b9050919050565b7f4f6e6c79206f776e65722063616e206368616e67652077686974656c6973742060008201527f6164647265737300000000000000000000000000000000000000000000000000602082015250565b6000612cd5602783611ead565b9150612ce082612c79565b604082019050919050565b60006020820190508181036000830152612d0481612cc8565b9050919050565b6000612d17828561284f565b9150612d23828461284f565b91508190509392505050565b7f4552433732313a207472616e736665722066726f6d20696e636f72726563742060008201527f6f776e6572000000000000000000000000000000000000000000000000000000602082015250565b6000612d8b602583611ead565b9150612d9682612d2f565b604082019050919050565b60006020820190508181036000830152612dba81612d7e565b9050919050565b7f4552433732313a207472616e7366657220746f20746865207a65726f2061646460008201527f7265737300000000000000000000000000000000000000000000000000000000602082015250565b6000612e1d602483611ead565b9150612e2882612dc1565b604082019050919050565b60006020820190508181036000830152612e4c81612e10565b9050919050565b7f4e487b7100000000000000000000000000000000000000000000000000000000600052601260045260246000fd5b6000612e8d82611f54565b9150612e9883611f54565b925082612ea857612ea7612e53565b5b828204905092915050565b6000612ebe82611f54565b9150612ec983611f54565b9250828202612ed781611f54565b91508282048414831517612eee57612eed612795565b5b5092915050565b7f45524337323155524953746f726167653a2055524920736574206f66206e6f6e60008201527f6578697374656e7420746f6b656e000000000000000000000000000000000000602082015250565b6000612f51602e83611ead565b9150612f5c82612ef5565b604082019050919050565b60006020820190508181036000830152612f8081612f44565b9050919050565b60006020601f8301049050919050565b600082821b905092915050565b600060088302612fd47fffffffffffffffffffffffffffffffffffffffffffffffffffffffffffffffff82612f97565b612fde8683612f97565b95508019841693508086168417925050509392505050565b6000819050919050565b600061301b61301661301184611f54565b612ff6565b611f54565b9050919050565b6000819050919050565b61303583613000565b61304961304182613022565b848454612fa4565b825550505050565b600090565b61305e613051565b61306981848461302c565b505050565b5b8181101561308d57613082600082613056565b60018101905061306f565b5050565b601f8211156130d2576130a3816128a2565b6130ac84612f87565b810160208510156130bb578190505b6130cf6130c785612f87565b83018261306e565b50505b505050565b600082821c905092915050565b60006130f5600019846008026130d7565b1980831691505092915050565b600061310e83836130e4565b9150826002028217905092915050565b61312782611ea2565b67ffffffffffffffff8111156131405761313f61219f565b5b61314a82546123bc565b613155828285613091565b600060209050601f8311600181146131885760008415613176578287015190505b6131808582613102565b8655506131e8565b601f198416613196866128a2565b60005b828110156131be57848901518255600182019150602085019450602081019050613199565b868310156131db57848901516131d7601f8916826130e4565b8355505b6001600288020188555050505b505050505050565b7f4552433732313a20617070726f766520746f2063616c6c657200000000000000600082015250565b6000613226601983611ead565b9150613231826131f0565b602082019050919050565b6000602082019050818103600083015261325581613219565b9050919050565b7f4552433732313a207472616e7366657220746f206e6f6e20455243373231526560008201527f63656976657220696d706c656d656e7465720000000000000000000000000000602082015250565b60006132b8603283611ead565b91506132c38261325c565b604082019050919050565b600060208201905081810360008301526132e7816132ab565b9050919050565b600081519050919050565b600082825260208201905092915050565b6000613315826132ee565b61331f81856132f9565b935061332f818560208601611ebe565b61333881611ee8565b840191505092915050565b60006080820190506133586000830187611fe9565b6133656020830186611fe9565b61337260408301856120ff565b8181036060830152613384818461330a565b905095945050505050565b60008151905061339e81611e13565b92915050565b6000602082840312156133ba576133b9611ddd565b5b60006133c88482850161338f565b91505092915050565b7f4552433732313a206d696e7420746f20746865207a65726f2061646472657373600082015250565b6000613407602083611ead565b9150613412826133d1565b602082019050919050565b60006020820190508181036000830152613436816133fa565b9050919050565b7f4552433732313a20746f6b656e20616c7265616479206d696e74656400000000600082015250565b6000613473601c83611ead565b915061347e8261343d565b602082019050919050565b600060208201905081810360008301526134a281613466565b905091905056fe4142434445464748494a4b4c4d4e4f505152535455565758595a6162636465666768696a6b6c6d6e6f707172737475767778797a303132333435363738392b2fa264697066735822122090151315c1b7197b6190f9d4f48621a59be27c6ab3f8ce1a65b89763e3ff436964736f6c634300081200333c73766720786d6c6e733d27687474703a2f2f7777772e77332e6f72672f323030302f73766727207072657365727665417370656374526174696f3d27784d696e594d696e206d656574272076696577426f783d273020302033353020333530273e3c7374796c653e2e62617365207b2066696c6c3a2077686974653b20666f6e742d66616d696c793a2073616e732d73657269663b20666f6e742d73697a653a20323470783b207d3c2f7374796c653e3c726563742077696474683d273130302527206865696768743d2731303025272066696c6c3d27626c61636b27202f3e3c7465787420783d273530252720793d273430252720636c6173733d27626173652720646f6d696e616e742d626173656c696e653d276d6964646c652720746578742d616e63686f723d276d6964646c65273e546f6b656e20666f72204c6f67696e3c2f746578743e3c7465787420783d273530252720793d273630252720636c6173733d27626173652720646f6d696e616e742d626173656c696e653d276d6964646c652720746578742d616e63686f723d276d6964646c65273e",
  "linkReferences": {},
  "deployedLinkReferences": {}
}