{
  "_format": "hh-sol-artifact-1",
  "contractName": "Whitelist",
  "sourceName": "contracts/Whitelist.sol",
  "abi": [
    {
      "inputs": [],
      "stateMutability": "nonpayable",
      "type": "constructor"
    },
    {
      "inputs": [
        {
          "internalType": "address",
          "name": "_address",
          "type": "address"
        }
      ],
      "name": "addUser",
      "outputs": [],
      "stateMutability": "nonpayable",
      "type": "function"
    },
    {
      "inputs": [
        {
          "internalType": "address",
          "name": "_address",
          "type": "address"
        }
      ],
      "name": "isInWhitelist",
      "outputs": [
        {
          "internalType": "bool",
          "name": "",
          "type": "bool"
        }
      ],
      "stateMutability": "view",
      "type": "function"
    },
    {
      "inputs": [
        {
          "internalType": "address",
          "name": "_address",
          "type": "address"
        }
      ],
      "name": "removeUser",
      "outputs": [],
      "stateMutability": "nonpayable",
      "type": "function"
    }
  ],
  "bytecode": "0x608060405234801561001057600080fd5b50336000806101000a81548173ffffffffffffffffffffffffffffffffffffffff021916908373ffffffffffffffffffffffffffffffffffffffff1602179055506105b3806100606000396000f3fe608060405234801561001057600080fd5b50600436106100415760003560e01c806309fd821214610046578063421b2d8b146100765780639857518814610092575b600080fd5b610060600480360381019061005b91906103c5565b6100ae565b60405161006d919061040d565b60405180910390f35b610090600480360381019061008b91906103c5565b610109565b005b6100ac60048036038101906100a791906103c5565b61023a565b005b600080600160008473ffffffffffffffffffffffffffffffffffffffff1673ffffffffffffffffffffffffffffffffffffffff16815260200190815260200160002060009054906101000a900460ff16905080915050919050565b60008054906101000a900473ffffffffffffffffffffffffffffffffffffffff1673ffffffffffffffffffffffffffffffffffffffff163373ffffffffffffffffffffffffffffffffffffffff1614610197576040517f08c379a000000000000000000000000000000000000000000000000000000000815260040161018e90610485565b60405180910390fd5b6101a0816100ae565b156101e0576040517f08c379a00000000000000000000000000000000000000000000000000000000081526004016101d7906104f1565b60405180910390fd5b60018060008373ffffffffffffffffffffffffffffffffffffffff1673ffffffffffffffffffffffffffffffffffffffff16815260200190815260200160002060006101000a81548160ff02191690831515021790555050565b60008054906101000a900473ffffffffffffffffffffffffffffffffffffffff1673ffffffffffffffffffffffffffffffffffffffff163373ffffffffffffffffffffffffffffffffffffffff16146102c8576040517f08c379a00000000000000000000000000000000000000000000000000000000081526004016102bf90610485565b60405180910390fd5b6102d1816100ae565b610310576040517f08c379a00000000000000000000000000000000000000000000000000000000081526004016103079061055d565b60405180910390fd5b600160008273ffffffffffffffffffffffffffffffffffffffff1673ffffffffffffffffffffffffffffffffffffffff16815260200190815260200160002060006101000a81549060ff021916905550565b600080fd5b600073ffffffffffffffffffffffffffffffffffffffff82169050919050565b600061039282610367565b9050919050565b6103a281610387565b81146103ad57600080fd5b50565b6000813590506103bf81610399565b92915050565b6000602082840312156103db576103da610362565b5b60006103e9848285016103b0565b91505092915050565b60008115159050919050565b610407816103f2565b82525050565b600060208201905061042260008301846103fe565b92915050565b600082825260208201905092915050565b7f596f7520617265206e6f7420746865206f776e65720000000000000000000000600082015250565b600061046f601583610428565b915061047a82610439565b602082019050919050565b6000602082019050818103600083015261049e81610462565b9050919050565b7f4164647265737320616c726561647920696e2077686974656c69737400000000600082015250565b60006104db601c83610428565b91506104e6826104a5565b602082019050919050565b6000602082019050818103600083015261050a816104ce565b9050919050565b7f41646472657373206e6f7420696e2077686974656c6973740000000000000000600082015250565b6000610547601883610428565b915061055282610511565b602082019050919050565b600060208201905081810360008301526105768161053a565b905091905056fea2646970667358221220094734d081bdcb8c706aae000fe2f2602491e6104e3795351d11857797a7ab7664736f6c63430008120033",
  "linkReferences": {},
  "deployedLinkReferences": {}
}